{
  "_format": "hh-sol-artifact-1",
  "contractName": "NFT",
  "sourceName": "contracts/NFT.sol",
  "abi": [
    {
      "inputs": [],
      "stateMutability": "nonpayable",
      "type": "constructor"
    },
    {
      "anonymous": false,
      "inputs": [
        {
          "indexed": true,
          "internalType": "address",
          "name": "owner",
          "type": "address"
        },
        {
          "indexed": true,
          "internalType": "address",
          "name": "approved",
          "type": "address"
        },
        {
          "indexed": true,
          "internalType": "uint256",
          "name": "tokenId",
          "type": "uint256"
        }
      ],
      "name": "Approval",
      "type": "event"
    },
    {
      "anonymous": false,
      "inputs": [
        {
          "indexed": true,
          "internalType": "address",
          "name": "owner",
          "type": "address"
        },
        {
          "indexed": true,
          "internalType": "address",
          "name": "operator",
          "type": "address"
        },
        {
          "indexed": false,
          "internalType": "bool",
          "name": "approved",
          "type": "bool"
        }
      ],
      "name": "ApprovalForAll",
      "type": "event"
    },
    {
      "anonymous": false,
      "inputs": [
        {
          "indexed": false,
          "internalType": "address",
          "name": "sender",
          "type": "address"
        },
        {
          "indexed": false,
          "internalType": "uint256",
          "name": "tokenId",
          "type": "uint256"
        }
      ],
      "name": "NewNFTMinted",
      "type": "event"
    },
    {
      "anonymous": false,
      "inputs": [
        {
          "indexed": true,
          "internalType": "address",
          "name": "from",
          "type": "address"
        },
        {
          "indexed": true,
          "internalType": "address",
          "name": "to",
          "type": "address"
        },
        {
          "indexed": true,
          "internalType": "uint256",
          "name": "tokenId",
          "type": "uint256"
        }
      ],
      "name": "Transfer",
      "type": "event"
    },
    {
      "inputs": [],
      "name": "TOTAL_SUPPLY",
      "outputs": [
        {
          "internalType": "uint8",
          "name": "",
          "type": "uint8"
        }
      ],
      "stateMutability": "view",
      "type": "function"
    },
    {
      "inputs": [
        {
          "internalType": "uint256",
          "name": "",
          "type": "uint256"
        }
      ],
      "name": "_hashes",
      "outputs": [
        {
          "internalType": "bytes32",
          "name": "",
          "type": "bytes32"
        }
      ],
      "stateMutability": "view",
      "type": "function"
    },
    {
      "inputs": [
        {
          "internalType": "address",
          "name": "to",
          "type": "address"
        },
        {
          "internalType": "uint256",
          "name": "tokenId",
          "type": "uint256"
        }
      ],
      "name": "approve",
      "outputs": [],
      "stateMutability": "nonpayable",
      "type": "function"
    },
    {
      "inputs": [
        {
          "internalType": "address",
          "name": "owner",
          "type": "address"
        }
      ],
      "name": "balanceOf",
      "outputs": [
        {
          "internalType": "uint256",
          "name": "",
          "type": "uint256"
        }
      ],
      "stateMutability": "view",
      "type": "function"
    },
    {
      "inputs": [],
      "name": "currentTokenId",
      "outputs": [
        {
          "internalType": "uint256",
          "name": "",
          "type": "uint256"
        }
      ],
      "stateMutability": "view",
      "type": "function"
    },
    {
      "inputs": [
        {
          "internalType": "uint256",
          "name": "tokenId",
          "type": "uint256"
        }
      ],
      "name": "getApproved",
      "outputs": [
        {
          "internalType": "address",
          "name": "",
          "type": "address"
        }
      ],
      "stateMutability": "view",
      "type": "function"
    },
    {
      "inputs": [
        {
          "internalType": "address",
          "name": "owner",
          "type": "address"
        },
        {
          "internalType": "address",
          "name": "operator",
          "type": "address"
        }
      ],
      "name": "isApprovedForAll",
      "outputs": [
        {
          "internalType": "bool",
          "name": "",
          "type": "bool"
        }
      ],
      "stateMutability": "view",
      "type": "function"
    },
    {
      "inputs": [],
      "name": "merkleroot",
      "outputs": [
        {
          "internalType": "bytes32",
          "name": "",
          "type": "bytes32"
        }
      ],
      "stateMutability": "view",
      "type": "function"
    },
    {
      "inputs": [
        {
          "internalType": "address",
          "name": "_receiverAddress",
          "type": "address"
        }
      ],
      "name": "mint",
      "outputs": [],
      "stateMutability": "nonpayable",
      "type": "function"
    },
    {
      "inputs": [],
      "name": "name",
      "outputs": [
        {
          "internalType": "string",
          "name": "",
          "type": "string"
        }
      ],
      "stateMutability": "view",
      "type": "function"
    },
    {
      "inputs": [
        {
          "internalType": "uint256",
          "name": "tokenId",
          "type": "uint256"
        }
      ],
      "name": "ownerOf",
      "outputs": [
        {
          "internalType": "address",
          "name": "",
          "type": "address"
        }
      ],
      "stateMutability": "view",
      "type": "function"
    },
    {
      "inputs": [
        {
          "internalType": "address",
          "name": "from",
          "type": "address"
        },
        {
          "internalType": "address",
          "name": "to",
          "type": "address"
        },
        {
          "internalType": "uint256",
          "name": "tokenId",
          "type": "uint256"
        }
      ],
      "name": "safeTransferFrom",
      "outputs": [],
      "stateMutability": "nonpayable",
      "type": "function"
    },
    {
      "inputs": [
        {
          "internalType": "address",
          "name": "from",
          "type": "address"
        },
        {
          "internalType": "address",
          "name": "to",
          "type": "address"
        },
        {
          "internalType": "uint256",
          "name": "tokenId",
          "type": "uint256"
        },
        {
          "internalType": "bytes",
          "name": "_data",
          "type": "bytes"
        }
      ],
      "name": "safeTransferFrom",
      "outputs": [],
      "stateMutability": "nonpayable",
      "type": "function"
    },
    {
      "inputs": [
        {
          "internalType": "address",
          "name": "operator",
          "type": "address"
        },
        {
          "internalType": "bool",
          "name": "approved",
          "type": "bool"
        }
      ],
      "name": "setApprovalForAll",
      "outputs": [],
      "stateMutability": "nonpayable",
      "type": "function"
    },
    {
      "inputs": [
        {
          "internalType": "bytes4",
          "name": "interfaceId",
          "type": "bytes4"
        }
      ],
      "name": "supportsInterface",
      "outputs": [
        {
          "internalType": "bool",
          "name": "",
          "type": "bool"
        }
      ],
      "stateMutability": "view",
      "type": "function"
    },
    {
      "inputs": [],
      "name": "symbol",
      "outputs": [
        {
          "internalType": "string",
          "name": "",
          "type": "string"
        }
      ],
      "stateMutability": "view",
      "type": "function"
    },
    {
      "inputs": [
        {
          "internalType": "uint256",
          "name": "tokenId",
          "type": "uint256"
        }
      ],
      "name": "tokenURI",
      "outputs": [
        {
          "internalType": "string",
          "name": "",
          "type": "string"
        }
      ],
      "stateMutability": "view",
      "type": "function"
    },
    {
      "inputs": [
        {
          "internalType": "address",
          "name": "from",
          "type": "address"
        },
        {
          "internalType": "address",
          "name": "to",
          "type": "address"
        },
        {
          "internalType": "uint256",
          "name": "tokenId",
          "type": "uint256"
        }
      ],
      "name": "transferFrom",
      "outputs": [],
      "stateMutability": "nonpayable",
      "type": "function"
    }
  ],
  "bytecode": "0x60806040526001600260046200001691906200079b565b620000229190620007dd565b60ff1667ffffffffffffffff81111562000065577f4e487b7100000000000000000000000000000000000000000000000000000000600052604160045260246000fd5b604051908082528060200260200182016040528015620000945781602001602082028036833780820191505090505b5060089080519060200190620000ac929190620004ef565b50348015620000ba57600080fd5b506040518060400160405280600781526020017f5a4b555f4e4654000000000000000000000000000000000000000000000000008152506040518060400160405280600381526020017f5a4654000000000000000000000000000000000000000000000000000000000081525081600090805190602001906200013f92919062000541565b5080600190805190602001906200015892919062000541565b5050506200016b620001bc60201b60201c565b620001b66040518060400160405280601781526020017f496e697469616c697a6564204d65726b6c6554726565210000000000000000008152506200042360201b62000e301760201c565b62000975565b6000805b600460ff168160ff1610156200026957604051602001620001e190620006c3565b6040516020818303038152906040528051906020012060088360ff168154811062000235577f4e487b7100000000000000000000000000000000000000000000000000000000600052603260045260246000fd5b9060005260206000200181905550818062000250906200089b565b925050808062000260906200089b565b915050620001c0565b5060006004905060005b60008260ff1611156200041e5760005b600183620002929190620007dd565b60ff168160ff161015620003f65760088183620002b0919062000725565b60ff1681548110620002eb577f4e487b7100000000000000000000000000000000000000000000000000000000600052603260045260246000fd5b906000526020600020015460086001838562000308919062000725565b62000314919062000725565b60ff16815481106200034f577f4e487b7100000000000000000000000000000000000000000000000000000000600052603260045260246000fd5b90600052602060002001546040516020016200036d92919062000693565b6040516020818303038152906040528051906020012060088560ff1681548110620003c1577f4e487b7100000000000000000000000000000000000000000000000000000000600052603260045260246000fd5b90600052602060002001819055508380620003dc906200089b565b945050600281620003ee919062000725565b905062000283565b50818162000405919062000725565b905060028262000416919062000763565b915062000273565b505050565b620004c3816040516024016200043a9190620006da565b6040516020818303038152906040527f41304fac000000000000000000000000000000000000000000000000000000007bffffffffffffffffffffffffffffffffffffffffffffffffffffffff19166020820180517bffffffffffffffffffffffffffffffffffffffffffffffffffffffff8381831617835250505050620004c660201b60201c565b50565b60008151905060006a636f6e736f6c652e6c6f679050602083016000808483855afa5050505050565b8280548282559060005260206000209081019282156200052e579160200282015b828111156200052d57825182559160200191906001019062000510565b5b5090506200053d9190620005d2565b5090565b8280546200054f9062000865565b90600052602060002090601f016020900481019282620005735760008555620005bf565b82601f106200058e57805160ff1916838001178555620005bf565b82800160010185558215620005bf579182015b82811115620005be578251825591602001919060010190620005a1565b5b509050620005ce9190620005f1565b5090565b5b80821115620005ed576000816000905550600101620005d3565b5090565b5b808211156200060c576000816000905550600101620005f2565b5090565b620006256200061f8262000818565b620008ca565b82525050565b60006200063882620006fe565b62000644818562000709565b9350620006568185602086016200082f565b620006618162000961565b840191505092915050565b60006200067b6000836200071a565b9150620006888262000972565b600082019050919050565b6000620006a1828562000610565b602082019150620006b3828462000610565b6020820191508190509392505050565b6000620006d0826200066c565b9150819050919050565b60006020820190508181036000830152620006f681846200062b565b905092915050565b600081519050919050565b600082825260208201905092915050565b600081905092915050565b6000620007328262000822565b91506200073f8362000822565b92508260ff03821115620007585762000757620008d4565b5b828201905092915050565b6000620007708262000822565b91506200077d8362000822565b92508262000790576200078f62000903565b5b828204905092915050565b6000620007a88262000822565b9150620007b58362000822565b92508160ff0483118215151615620007d257620007d1620008d4565b5b828202905092915050565b6000620007ea8262000822565b9150620007f78362000822565b9250828210156200080d576200080c620008d4565b5b828203905092915050565b6000819050919050565b600060ff82169050919050565b60005b838110156200084f57808201518184015260208101905062000832565b838111156200085f576000848401525b50505050565b600060028204905060018216806200087e57607f821691505b6020821081141562000895576200089462000932565b5b50919050565b6000620008a88262000822565b915060ff821415620008bf57620008be620008d4565b5b600182019050919050565b6000819050919050565b7f4e487b7100000000000000000000000000000000000000000000000000000000600052601160045260246000fd5b7f4e487b7100000000000000000000000000000000000000000000000000000000600052601260045260246000fd5b7f4e487b7100000000000000000000000000000000000000000000000000000000600052602260045260246000fd5b6000601f19601f8301169050919050565b50565b6138dc80620009856000396000f3fe608060405234801561001057600080fd5b50600436106101155760003560e01c806370a08231116100a2578063b6c7ecf511610071578063b6c7ecf5146102de578063b88d4fde146102fc578063be54d28d14610318578063c87b56dd14610348578063e985e9c51461037857610115565b806370a0823114610256578063902d55a51461028657806395d89b41146102a4578063a22cb465146102c257610115565b8063095ea7b3116100e9578063095ea7b3146101b657806323b872dd146101d257806342842e0e146101ee5780636352211e1461020a5780636a6278421461023a57610115565b80629a9b7b1461011a57806301ffc9a71461013857806306fdde0314610168578063081812fc14610186575b600080fd5b6101226103a8565b60405161012f9190612d12565b60405180910390f35b610152600480360381019061014d91906124a5565b6103b9565b60405161015f9190612a5c565b60405180910390f35b61017061049b565b60405161017d9190612a92565b60405180910390f35b6101a0600480360381019061019b91906124f7565b61052d565b6040516101ad91906129cc565b60405180910390f35b6101d060048036038101906101cb9190612469565b6105b2565b005b6101ec60048036038101906101e79190612363565b6106ca565b005b61020860048036038101906102039190612363565b61072a565b005b610224600480360381019061021f91906124f7565b61074a565b60405161023191906129cc565b60405180910390f35b610254600480360381019061024f91906122fe565b6107fc565b005b610270600480360381019061026b91906122fe565b610a02565b60405161027d9190612d12565b60405180910390f35b61028e610aba565b60405161029b9190612d2d565b60405180910390f35b6102ac610abf565b6040516102b99190612a92565b60405180910390f35b6102dc60048036038101906102d7919061242d565b610b51565b005b6102e6610b67565b6040516102f39190612a77565b60405180910390f35b610316600480360381019061031191906123b2565b610bc4565b005b610332600480360381019061032d91906124f7565b610c26565b60405161033f9190612a77565b60405180910390f35b610362600480360381019061035d91906124f7565b610c4a565b60405161036f9190612a92565b60405180910390f35b610392600480360381019061038d9190612327565b610d9c565b60405161039f9190612a5c565b60405180910390f35b60006103b46007610ec9565b905090565b60007f80ac58cd000000000000000000000000000000000000000000000000000000007bffffffffffffffffffffffffffffffffffffffffffffffffffffffff1916827bffffffffffffffffffffffffffffffffffffffffffffffffffffffff1916148061048457507f5b5e139f000000000000000000000000000000000000000000000000000000007bffffffffffffffffffffffffffffffffffffffffffffffffffffffff1916827bffffffffffffffffffffffffffffffffffffffffffffffffffffffff1916145b80610494575061049382610ed7565b5b9050919050565b6060600080546104aa90613071565b80601f01602080910402602001604051908101604052809291908181526020018280546104d690613071565b80156105235780601f106104f857610100808354040283529160200191610523565b820191906000526020600020905b81548152906001019060200180831161050657829003601f168201915b5050505050905090565b600061053882610f41565b610577576040517f08c379a000000000000000000000000000000000000000000000000000000000815260040161056e90612c92565b60405180910390fd5b6004600083815260200190815260200160002060009054906101000a900473ffffffffffffffffffffffffffffffffffffffff169050919050565b60006105bd8261074a565b90508073ffffffffffffffffffffffffffffffffffffffff168373ffffffffffffffffffffffffffffffffffffffff16141561062e576040517f08c379a000000000000000000000000000000000000000000000000000000000815260040161062590612cd2565b60405180910390fd5b8073ffffffffffffffffffffffffffffffffffffffff1661064d610fad565b73ffffffffffffffffffffffffffffffffffffffff16148061067c575061067b81610676610fad565b610d9c565b5b6106bb576040517f08c379a00000000000000000000000000000000000000000000000000000000081526004016106b290612bb2565b60405180910390fd5b6106c58383610fb5565b505050565b6106db6106d5610fad565b8261106e565b61071a576040517f08c379a000000000000000000000000000000000000000000000000000000000815260040161071190612cf2565b60405180910390fd5b61072583838361114c565b505050565b61074583838360405180602001604052806000815250610bc4565b505050565b6000806002600084815260200190815260200160002060009054906101000a900473ffffffffffffffffffffffffffffffffffffffff169050600073ffffffffffffffffffffffffffffffffffffffff168173ffffffffffffffffffffffffffffffffffffffff1614156107f3576040517f08c379a00000000000000000000000000000000000000000000000000000000081526004016107ea90612bf2565b60405180910390fd5b80915050919050565b60006108086007610ec9565b90508060ff16600460ff1611610853576040517f08c379a000000000000000000000000000000000000000000000000000000000815260040161084a90612c32565b60405180910390fd5b600061087b604051602001610867906129b7565b6040516020818303038152906040526113b3565b90506000816040516020016108909190612995565b60405160208183030381529060405290506108df6040518060400160405280601581526020017f0a2d2d2d2d2d2d2d2d2d2d2d2d2d2d2d2d2d2d2d2d0000000000000000000000815250610e30565b6108e881610e30565b6109266040518060400160405280601581526020017f2d2d2d2d2d2d2d2d2d2d2d2d2d2d2d2d2d2d2d2d0a0000000000000000000000815250610e30565b610933848460ff16611571565b6109408360ff168261158f565b61094a6007611603565b61098d6040518060400160405280601f81526020017f4974656d496420257320686173206265656e206d696e74656420746f202573008152508460ff1686611619565b6109c3338585846040516020016109a794939291906128fb565b60405160208183030381529060405280519060200120846116b8565b7f1c05098ed1ff38e6238d2b1b04b2c7977d4c94ce651bda6473f9dba8dbf01da033846040516109f4929190612a33565b60405180910390a150505050565b60008073ffffffffffffffffffffffffffffffffffffffff168273ffffffffffffffffffffffffffffffffffffffff161415610a73576040517f08c379a0000000000000000000000000000000000000000000000000000000008152600401610a6a90612bd2565b60405180910390fd5b600360008373ffffffffffffffffffffffffffffffffffffffff1673ffffffffffffffffffffffffffffffffffffffff168152602001908152602001600020549050919050565b600481565b606060018054610ace90613071565b80601f0160208091040260200160405190810160405280929190818152602001828054610afa90613071565b8015610b475780601f10610b1c57610100808354040283529160200191610b47565b820191906000526020600020905b815481529060010190602001808311610b2a57829003601f168201915b5050505050905090565b610b63610b5c610fad565b8383611934565b5050565b600060086001600880549050610b7d9190612f2a565b81548110610bb4577f4e487b7100000000000000000000000000000000000000000000000000000000600052603260045260246000fd5b9060005260206000200154905090565b610bd5610bcf610fad565b8361106e565b610c14576040517f08c379a0000000000000000000000000000000000000000000000000000000008152600401610c0b90612cf2565b60405180910390fd5b610c2084848484611aa1565b50505050565b60088181548110610c3657600080fd5b906000526020600020016000915090505481565b6060610c5582610f41565b610c94576040517f08c379a0000000000000000000000000000000000000000000000000000000008152600401610c8b90612c72565b60405180910390fd5b6000600660008481526020019081526020016000208054610cb490613071565b80601f0160208091040260200160405190810160405280929190818152602001828054610ce090613071565b8015610d2d5780601f10610d0257610100808354040283529160200191610d2d565b820191906000526020600020905b815481529060010190602001808311610d1057829003601f168201915b505050505090506000610d3e611afd565b9050600081511415610d54578192505050610d97565b600082511115610d89578082604051602001610d71929190612971565b60405160208183030381529060405292505050610d97565b610d9284611b14565b925050505b919050565b6000600560008473ffffffffffffffffffffffffffffffffffffffff1673ffffffffffffffffffffffffffffffffffffffff16815260200190815260200160002060008373ffffffffffffffffffffffffffffffffffffffff1673ffffffffffffffffffffffffffffffffffffffff16815260200190815260200160002060009054906101000a900460ff16905092915050565b610ec681604051602401610e449190612a92565b6040516020818303038152906040527f41304fac000000000000000000000000000000000000000000000000000000007bffffffffffffffffffffffffffffffffffffffffffffffffffffffff19166020820180517bffffffffffffffffffffffffffffffffffffffffffffffffffffffff8381831617835250505050611bbb565b50565b600081600001549050919050565b60007f01ffc9a7000000000000000000000000000000000000000000000000000000007bffffffffffffffffffffffffffffffffffffffffffffffffffffffff1916827bffffffffffffffffffffffffffffffffffffffffffffffffffffffff1916149050919050565b60008073ffffffffffffffffffffffffffffffffffffffff166002600084815260200190815260200160002060009054906101000a900473ffffffffffffffffffffffffffffffffffffffff1673ffffffffffffffffffffffffffffffffffffffff1614159050919050565b600033905090565b816004600083815260200190815260200160002060006101000a81548173ffffffffffffffffffffffffffffffffffffffff021916908373ffffffffffffffffffffffffffffffffffffffff160217905550808273ffffffffffffffffffffffffffffffffffffffff166110288361074a565b73ffffffffffffffffffffffffffffffffffffffff167f8c5be1e5ebec7d5bd14f71427d1e84f3dd0314c0f7b2291e5b200ac8c7c3b92560405160405180910390a45050565b600061107982610f41565b6110b8576040517f08c379a00000000000000000000000000000000000000000000000000000000081526004016110af90612b92565b60405180910390fd5b60006110c38361074a565b90508073ffffffffffffffffffffffffffffffffffffffff168473ffffffffffffffffffffffffffffffffffffffff16148061113257508373ffffffffffffffffffffffffffffffffffffffff1661111a8461052d565b73ffffffffffffffffffffffffffffffffffffffff16145b8061114357506111428185610d9c565b5b91505092915050565b8273ffffffffffffffffffffffffffffffffffffffff1661116c8261074a565b73ffffffffffffffffffffffffffffffffffffffff16146111c2576040517f08c379a00000000000000000000000000000000000000000000000000000000081526004016111b990612b12565b60405180910390fd5b600073ffffffffffffffffffffffffffffffffffffffff168273ffffffffffffffffffffffffffffffffffffffff161415611232576040517f08c379a000000000000000000000000000000000000000000000000000000000815260040161122990612b52565b60405180910390fd5b61123d838383611be4565b611248600082610fb5565b6001600360008573ffffffffffffffffffffffffffffffffffffffff1673ffffffffffffffffffffffffffffffffffffffff16815260200190815260200160002060008282546112989190612f2a565b925050819055506001600360008473ffffffffffffffffffffffffffffffffffffffff1673ffffffffffffffffffffffffffffffffffffffff16815260200190815260200160002060008282546112ef9190612de1565b92505081905550816002600083815260200190815260200160002060006101000a81548173ffffffffffffffffffffffffffffffffffffffff021916908373ffffffffffffffffffffffffffffffffffffffff160217905550808273ffffffffffffffffffffffffffffffffffffffff168473ffffffffffffffffffffffffffffffffffffffff167fddf252ad1be2c89b69c2b068fc378daa952ba7f163c4a11628f55a4df523b3ef60405160405180910390a46113ae838383611be9565b505050565b606060008251905060008114156113dc576040518060200160405280600081525091505061156c565b600060036002836113ed9190612de1565b6113f79190612e6e565b60046114039190612ed0565b905060006020826114149190612de1565b67ffffffffffffffff811115611453577f4e487b7100000000000000000000000000000000000000000000000000000000600052604160045260246000fd5b6040519080825280601f01601f1916602001820160405280156114855781602001600182028036833780820191505090505b5090506000604051806060016040528060408152602001613867604091399050600181016020830160005b868110156115295760038101905062ffffff818a015116603f8160121c168401518060081b905060ff603f83600c1c1686015116810190508060081b905060ff603f8360061c1686015116810190508060081b905060ff603f831686015116810190508060e01b905080845260048401935050506114b0565b50600386066001811461154357600281146115535761155e565b613d3d60f01b600283035261155e565b603d60f81b60018303525b508484525050819450505050505b919050565b61158b828260405180602001604052806000815250611bee565b5050565b61159882610f41565b6115d7576040517f08c379a00000000000000000000000000000000000000000000000000000000081526004016115ce90612c12565b60405180910390fd5b806006600084815260200190815260200160002090805190602001906115fe92919061218a565b505050565b6001816000016000828254019250508190555050565b6116b383838360405160240161163193929190612ab4565b6040516020818303038152906040527fe3849f79000000000000000000000000000000000000000000000000000000007bffffffffffffffffffffffffffffffffffffffffffffffffffffffff19166020820180517bffffffffffffffffffffffffffffffffffffffffffffffffffffffff8381831617835250505050611bbb565b505050565b60008082905060005b600460ff168160ff16101561174c578160ff168160ff16141561172b578460088460ff168154811061171c577f4e487b7100000000000000000000000000000000000000000000000000000000600052603260045260246000fd5b90600052602060002001819055505b82806117369061311d565b93505080806117449061311d565b9150506116c1565b5060006004905060005b60008260ff16111561192c5760005b6001836117729190612f5e565b60ff168160ff161015611909578360ff16818361178f9190612e37565b60ff1614806117ba57508360ff16600182846117ab9190612e37565b6117b59190612e37565b60ff16145b156118e757600881836117cd9190612e37565b60ff1681548110611807577f4e487b7100000000000000000000000000000000000000000000000000000000600052603260045260246000fd5b90600052602060002001546008600183856118229190612e37565b61182c9190612e37565b60ff1681548110611866577f4e487b7100000000000000000000000000000000000000000000000000000000600052603260045260246000fd5b9060005260206000200154604051602001611882929190612945565b6040516020818303038152906040528051906020012060088660ff16815481106118d5577f4e487b7100000000000000000000000000000000000000000000000000000000600052603260045260246000fd5b90600052602060002001819055508493505b84806118f29061311d565b9550506002816119029190612e37565b9050611765565b5081816119169190612e37565b90506002826119259190612e9f565b9150611756565b505050505050565b8173ffffffffffffffffffffffffffffffffffffffff168373ffffffffffffffffffffffffffffffffffffffff1614156119a3576040517f08c379a000000000000000000000000000000000000000000000000000000000815260040161199a90612b72565b60405180910390fd5b80600560008573ffffffffffffffffffffffffffffffffffffffff1673ffffffffffffffffffffffffffffffffffffffff16815260200190815260200160002060008473ffffffffffffffffffffffffffffffffffffffff1673ffffffffffffffffffffffffffffffffffffffff16815260200190815260200160002060006101000a81548160ff0219169083151502179055508173ffffffffffffffffffffffffffffffffffffffff168373ffffffffffffffffffffffffffffffffffffffff167f17307eab39ab6107e8899845ad3d59bd9653f200f220920489ca2b5937696c3183604051611a949190612a5c565b60405180910390a3505050565b611aac84848461114c565b611ab884848484611c49565b611af7576040517f08c379a0000000000000000000000000000000000000000000000000000000008152600401611aee90612af2565b60405180910390fd5b50505050565b606060405180602001604052806000815250905090565b6060611b1f82610f41565b611b5e576040517f08c379a0000000000000000000000000000000000000000000000000000000008152600401611b5590612cb2565b60405180910390fd5b6000611b68611afd565b90506000815111611b885760405180602001604052806000815250611bb3565b80611b9284611de0565b604051602001611ba3929190612971565b6040516020818303038152906040525b915050919050565b60008151905060006a636f6e736f6c652e6c6f679050602083016000808483855afa5050505050565b505050565b505050565b611bf88383611f8d565b611c056000848484611c49565b611c44576040517f08c379a0000000000000000000000000000000000000000000000000000000008152600401611c3b90612af2565b60405180910390fd5b505050565b6000611c6a8473ffffffffffffffffffffffffffffffffffffffff16612167565b15611dd3578373ffffffffffffffffffffffffffffffffffffffff1663150b7a02611c93610fad565b8786866040518563ffffffff1660e01b8152600401611cb594939291906129e7565b602060405180830381600087803b158015611ccf57600080fd5b505af1925050508015611d0057506040513d601f19601f82011682018060405250810190611cfd91906124ce565b60015b611d83573d8060008114611d30576040519150601f19603f3d011682016040523d82523d6000602084013e611d35565b606091505b50600081511415611d7b576040517f08c379a0000000000000000000000000000000000000000000000000000000008152600401611d7290612af2565b60405180910390fd5b805181602001fd5b63150b7a0260e01b7bffffffffffffffffffffffffffffffffffffffffffffffffffffffff1916817bffffffffffffffffffffffffffffffffffffffffffffffffffffffff191614915050611dd8565b600190505b949350505050565b60606000821415611e28576040518060400160405280600181526020017f30000000000000000000000000000000000000000000000000000000000000008152509050611f88565b600082905060005b60008214611e5a578080611e43906130d4565b915050600a82611e539190612e6e565b9150611e30565b60008167ffffffffffffffff811115611e9c577f4e487b7100000000000000000000000000000000000000000000000000000000600052604160045260246000fd5b6040519080825280601f01601f191660200182016040528015611ece5781602001600182028036833780820191505090505b5090505b60008514611f8157600182611ee79190612f2a565b9150600a85611ef69190613187565b6030611f029190612de1565b60f81b818381518110611f3e577f4e487b7100000000000000000000000000000000000000000000000000000000600052603260045260246000fd5b60200101907effffffffffffffffffffffffffffffffffffffffffffffffffffffffffffff1916908160001a905350600a85611f7a9190612e6e565b9450611ed2565b8093505050505b919050565b600073ffffffffffffffffffffffffffffffffffffffff168273ffffffffffffffffffffffffffffffffffffffff161415611ffd576040517f08c379a0000000000000000000000000000000000000000000000000000000008152600401611ff490612c52565b60405180910390fd5b61200681610f41565b15612046576040517f08c379a000000000000000000000000000000000000000000000000000000000815260040161203d90612b32565b60405180910390fd5b61205260008383611be4565b6001600360008473ffffffffffffffffffffffffffffffffffffffff1673ffffffffffffffffffffffffffffffffffffffff16815260200190815260200160002060008282546120a29190612de1565b92505081905550816002600083815260200190815260200160002060006101000a81548173ffffffffffffffffffffffffffffffffffffffff021916908373ffffffffffffffffffffffffffffffffffffffff160217905550808273ffffffffffffffffffffffffffffffffffffffff16600073ffffffffffffffffffffffffffffffffffffffff167fddf252ad1be2c89b69c2b068fc378daa952ba7f163c4a11628f55a4df523b3ef60405160405180910390a461216360008383611be9565b5050565b6000808273ffffffffffffffffffffffffffffffffffffffff163b119050919050565b82805461219690613071565b90600052602060002090601f0160209004810192826121b857600085556121ff565b82601f106121d157805160ff19168380011785556121ff565b828001600101855582156121ff579182015b828111156121fe5782518255916020019190600101906121e3565b5b50905061220c9190612210565b5090565b5b80821115612229576000816000905550600101612211565b5090565b600061224061223b84612d6d565b612d48565b90508281526020810184848401111561225857600080fd5b61226384828561302f565b509392505050565b60008135905061227a8161380a565b92915050565b60008135905061228f81613821565b92915050565b6000813590506122a481613838565b92915050565b6000815190506122b981613838565b92915050565b600082601f8301126122d057600080fd5b81356122e084826020860161222d565b91505092915050565b6000813590506122f88161384f565b92915050565b60006020828403121561231057600080fd5b600061231e8482850161226b565b91505092915050565b6000806040838503121561233a57600080fd5b60006123488582860161226b565b92505060206123598582860161226b565b9150509250929050565b60008060006060848603121561237857600080fd5b60006123868682870161226b565b93505060206123978682870161226b565b92505060406123a8868287016122e9565b9150509250925092565b600080600080608085870312156123c857600080fd5b60006123d68782880161226b565b94505060206123e78782880161226b565b93505060406123f8878288016122e9565b925050606085013567ffffffffffffffff81111561241557600080fd5b612421878288016122bf565b91505092959194509250565b6000806040838503121561244057600080fd5b600061244e8582860161226b565b925050602061245f85828601612280565b9150509250929050565b6000806040838503121561247c57600080fd5b600061248a8582860161226b565b925050602061249b858286016122e9565b9150509250929050565b6000602082840312156124b757600080fd5b60006124c584828501612295565b91505092915050565b6000602082840312156124e057600080fd5b60006124ee848285016122aa565b91505092915050565b60006020828403121561250957600080fd5b6000612517848285016122e9565b91505092915050565b61252981612f92565b82525050565b61254061253b82612f92565b613147565b82525050565b61254f81612fa4565b82525050565b61255e81612fb0565b82525050565b61257561257082612fb0565b613159565b82525050565b600061258682612d9e565b6125908185612db4565b93506125a081856020860161303e565b6125a981613274565b840191505092915050565b60006125bf82612da9565b6125c98185612dc5565b93506125d981856020860161303e565b6125e281613274565b840191505092915050565b60006125f882612da9565b6126028185612dd6565b935061261281856020860161303e565b80840191505092915050565b600061262b603283612dc5565b91506126368261329f565b604082019050919050565b600061264e602583612dc5565b9150612659826132ee565b604082019050919050565b6000612671601c83612dc5565b915061267c8261333d565b602082019050919050565b6000612694602483612dc5565b915061269f82613366565b604082019050919050565b60006126b7601983612dc5565b91506126c2826133b5565b602082019050919050565b60006126da602c83612dc5565b91506126e5826133de565b604082019050919050565b60006126fd603883612dc5565b91506127088261342d565b604082019050919050565b6000612720602a83612dc5565b915061272b8261347c565b604082019050919050565b6000612743602983612dc5565b915061274e826134cb565b604082019050919050565b6000612766602e83612dc5565b91506127718261351a565b604082019050919050565b6000612789600e83612dc5565b915061279482613569565b602082019050919050565b60006127ac602083612dc5565b91506127b782613592565b602082019050919050565b60006127cf603183612dc5565b91506127da826135bb565b604082019050919050565b60006127f2602c83612dc5565b91506127fd8261360a565b604082019050919050565b6000612815602f83612dc5565b915061282082613659565b604082019050919050565b6000612838602183612dc5565b9150612843826136a8565b604082019050919050565b600061285b601d83612dd6565b9150612866826136f7565b601d82019050919050565b600061287e603183612dc5565b915061288982613720565b604082019050919050565b60006128a1607583612dd6565b91506128ac8261376f565b607582019050919050565b6128c081613006565b82525050565b6128cf8161301d565b82525050565b6128de81613010565b82525050565b6128f56128f082613010565b613175565b82525050565b6000612907828761252f565b601482019150612917828661252f565b60148201915061292782856128e4565b60018201915061293782846125ed565b915081905095945050505050565b60006129518285612564565b6020820191506129618284612564565b6020820191508190509392505050565b600061297d82856125ed565b915061298982846125ed565b91508190509392505050565b60006129a08261284e565b91506129ac82846125ed565b915081905092915050565b60006129c282612894565b9150819050919050565b60006020820190506129e16000830184612520565b92915050565b60006080820190506129fc6000830187612520565b612a096020830186612520565b612a1660408301856128b7565b8181036060830152612a28818461257b565b905095945050505050565b6000604082019050612a486000830185612520565b612a5560208301846128c6565b9392505050565b6000602082019050612a716000830184612546565b92915050565b6000602082019050612a8c6000830184612555565b92915050565b60006020820190508181036000830152612aac81846125b4565b905092915050565b60006060820190508181036000830152612ace81866125b4565b9050612add60208301856128b7565b612aea6040830184612520565b949350505050565b60006020820190508181036000830152612b0b8161261e565b9050919050565b60006020820190508181036000830152612b2b81612641565b9050919050565b60006020820190508181036000830152612b4b81612664565b9050919050565b60006020820190508181036000830152612b6b81612687565b9050919050565b60006020820190508181036000830152612b8b816126aa565b9050919050565b60006020820190508181036000830152612bab816126cd565b9050919050565b60006020820190508181036000830152612bcb816126f0565b9050919050565b60006020820190508181036000830152612beb81612713565b9050919050565b60006020820190508181036000830152612c0b81612736565b9050919050565b60006020820190508181036000830152612c2b81612759565b9050919050565b60006020820190508181036000830152612c4b8161277c565b9050919050565b60006020820190508181036000830152612c6b8161279f565b9050919050565b60006020820190508181036000830152612c8b816127c2565b9050919050565b60006020820190508181036000830152612cab816127e5565b9050919050565b60006020820190508181036000830152612ccb81612808565b9050919050565b60006020820190508181036000830152612ceb8161282b565b9050919050565b60006020820190508181036000830152612d0b81612871565b9050919050565b6000602082019050612d2760008301846128b7565b92915050565b6000602082019050612d4260008301846128d5565b92915050565b6000612d52612d63565b9050612d5e82826130a3565b919050565b6000604051905090565b600067ffffffffffffffff821115612d8857612d87613245565b5b612d9182613274565b9050602081019050919050565b600081519050919050565b600081519050919050565b600082825260208201905092915050565b600082825260208201905092915050565b600081905092915050565b6000612dec82613006565b9150612df783613006565b9250827fffffffffffffffffffffffffffffffffffffffffffffffffffffffffffffffff03821115612e2c57612e2b6131b8565b5b828201905092915050565b6000612e4282613010565b9150612e4d83613010565b92508260ff03821115612e6357612e626131b8565b5b828201905092915050565b6000612e7982613006565b9150612e8483613006565b925082612e9457612e936131e7565b5b828204905092915050565b6000612eaa82613010565b9150612eb583613010565b925082612ec557612ec46131e7565b5b828204905092915050565b6000612edb82613006565b9150612ee683613006565b9250817fffffffffffffffffffffffffffffffffffffffffffffffffffffffffffffffff0483118215151615612f1f57612f1e6131b8565b5b828202905092915050565b6000612f3582613006565b9150612f4083613006565b925082821015612f5357612f526131b8565b5b828203905092915050565b6000612f6982613010565b9150612f7483613010565b925082821015612f8757612f866131b8565b5b828203905092915050565b6000612f9d82612fe6565b9050919050565b60008115159050919050565b6000819050919050565b60007fffffffff0000000000000000000000000000000000000000000000000000000082169050919050565b600073ffffffffffffffffffffffffffffffffffffffff82169050919050565b6000819050919050565b600060ff82169050919050565b600061302882613010565b9050919050565b82818337600083830152505050565b60005b8381101561305c578082015181840152602081019050613041565b8381111561306b576000848401525b50505050565b6000600282049050600182168061308957607f821691505b6020821081141561309d5761309c613216565b5b50919050565b6130ac82613274565b810181811067ffffffffffffffff821117156130cb576130ca613245565b5b80604052505050565b60006130df82613006565b91507fffffffffffffffffffffffffffffffffffffffffffffffffffffffffffffffff821415613112576131116131b8565b5b600182019050919050565b600061312882613010565b915060ff82141561313c5761313b6131b8565b5b600182019050919050565b600061315282613163565b9050919050565b6000819050919050565b600061316e82613292565b9050919050565b600061318082613285565b9050919050565b600061319282613006565b915061319d83613006565b9250826131ad576131ac6131e7565b5b828206905092915050565b7f4e487b7100000000000000000000000000000000000000000000000000000000600052601160045260246000fd5b7f4e487b7100000000000000000000000000000000000000000000000000000000600052601260045260246000fd5b7f4e487b7100000000000000000000000000000000000000000000000000000000600052602260045260246000fd5b7f4e487b7100000000000000000000000000000000000000000000000000000000600052604160045260246000fd5b6000601f19601f8301169050919050565b60008160f81b9050919050565b60008160601b9050919050565b7f4552433732313a207472616e7366657220746f206e6f6e20455243373231526560008201527f63656976657220696d706c656d656e7465720000000000000000000000000000602082015250565b7f4552433732313a207472616e736665722066726f6d20696e636f72726563742060008201527f6f776e6572000000000000000000000000000000000000000000000000000000602082015250565b7f4552433732313a20746f6b656e20616c7265616479206d696e74656400000000600082015250565b7f4552433732313a207472616e7366657220746f20746865207a65726f2061646460008201527f7265737300000000000000000000000000000000000000000000000000000000602082015250565b7f4552433732313a20617070726f766520746f2063616c6c657200000000000000600082015250565b7f4552433732313a206f70657261746f7220717565727920666f72206e6f6e657860008201527f697374656e7420746f6b656e0000000000000000000000000000000000000000602082015250565b7f4552433732313a20617070726f76652063616c6c6572206973206e6f74206f7760008201527f6e6572206e6f7220617070726f76656420666f7220616c6c0000000000000000602082015250565b7f4552433732313a2062616c616e636520717565727920666f7220746865207a6560008201527f726f206164647265737300000000000000000000000000000000000000000000602082015250565b7f4552433732313a206f776e657220717565727920666f72206e6f6e657869737460008201527f656e7420746f6b656e0000000000000000000000000000000000000000000000602082015250565b7f45524337323155524953746f726167653a2055524920736574206f66206e6f6e60008201527f6578697374656e7420746f6b656e000000000000000000000000000000000000602082015250565b7f6e6f206d6f7265204e46542e2e2e000000000000000000000000000000000000600082015250565b7f4552433732313a206d696e7420746f20746865207a65726f2061646472657373600082015250565b7f45524337323155524953746f726167653a2055524920717565727920666f722060008201527f6e6f6e6578697374656e7420746f6b656e000000000000000000000000000000602082015250565b7f4552433732313a20617070726f76656420717565727920666f72206e6f6e657860008201527f697374656e7420746f6b656e0000000000000000000000000000000000000000602082015250565b7f4552433732314d657461646174613a2055524920717565727920666f72206e6f60008201527f6e6578697374656e7420746f6b656e0000000000000000000000000000000000602082015250565b7f4552433732313a20617070726f76616c20746f2063757272656e74206f776e6560008201527f7200000000000000000000000000000000000000000000000000000000000000602082015250565b7f646174613a6170706c69636174696f6e2f6a736f6e3b6261736536342c000000600082015250565b7f4552433732313a207472616e736665722063616c6c6572206973206e6f74206f60008201527f776e6572206e6f7220617070726f766564000000000000000000000000000000602082015250565b7f7b226e616d65223a20225a4b555f4e465420222c20226465736372697074696f60008201527f6e223a20225765656b31205175657374696f6e20323a204d696e74696e67206160208201527f6e204e465420616e6420636f6d6d697474696e6720746865206d696e7420646160408201527f746120746f2061204d65726b6c652054726565227d0000000000000000000000606082015250565b61381381612f92565b811461381e57600080fd5b50565b61382a81612fa4565b811461383557600080fd5b50565b61384181612fba565b811461384c57600080fd5b50565b61385881613006565b811461386357600080fd5b5056fe4142434445464748494a4b4c4d4e4f505152535455565758595a6162636465666768696a6b6c6d6e6f707172737475767778797a303132333435363738392b2fa26469706673582212208fb04101f2e6b5df98f95615a7868ebe7f2f41c70cce725c7d6a5fe803e8c28a64736f6c63430008040033",
  "linkReferences": {},
  "deployedLinkReferences": {}
}